:020000040800F2
:10000000F80B002049020008D52900085F210008EC
:1000100075290008FB0A000895330008000000005D
:10002000000000000000000000000000FD2C00089F
:10003000FD0A000800000000B92C00081B2D000874
:1000400063020008630200086302000863020008FC
:1000500063020008630200086302000863020008EC
:1000600063020008630200086302000863020008DC
:1000700063020008630200086302000863020008CC
:1000800063020008630200086302000863020008BC
:1000900063020008630200086302000863020008AC
:1000A000630200086302000863020008630200089C
:1000B000630200086302000863020008630200088C
:1000C000630200086302000863020008630200087C
:1000D00063020008713300087D330008893300088B
:1000E000630200086302000863020008630200085C
:1000F000630200086302000863020008630200084C
:10010000630200086302000863020008630200083B
:10011000630200086302000863020008630200082B
:10012000630200086302000863020008630200081B
:10013000630200086302000863020008630200080B
:1001400063020008630200086302000863020008FB
:1001500063020008630200086302000863020008EB
:1001600063020008630200086302000863020008DB
:100170006302000863020008630200080000000038
:10018000630200086302000800F002F800F04DF876
:100190000AA090E8000C82448344AAF10107DA45E2
:1001A00001D100F042F8AFF2090EBAE80F0013F0E7
:1001B000010F18BFFB1A43F001031847583B00001A
:1001C000783B0000103A24BF78C878C1FAD85207AB
:1001D00024BF30C830C144BF04680C6070470000C1
:1001E0000023002400250026103A28BF78C1FBD840
:1001F000520728BF30C148BF0B607047642900F028
:100200003381732900F08B82002070471FB503F003
:10021000D5F900F041FB04000020002103F0B8F9FB
:10022000401C60601FBD10B510BD00F010FB1146F2
:10023000FFF7ECFF03F0EEF800F040FB03B4FFF72C
:10024000F2FF03BC00F084FB0948804709480047DF
:10025000FEE7FEE7FEE7FEE7FEE7FEE7FEE7FEE776
:10026000FEE7FEE704480549054A064B70470000D3
:10027000B52D000889010008F8050020F80B0020C2
:10028000F8070020F807002053EA020C00F069800C
:100290002DE9F04B4FF00006002B1FBFB3FA83F59A
:1002A00003FA05F424FA05F65E4012BF1643B2FACB
:1002B00082F502FA05F4C5F120051EBF22FA05FCFD
:1002C00044EA0C04203556EA044C4FEA144418BFA3
:1002D000641C4FF000084FF00009904271EB030CD2
:1002E00039D3002919BFB1FA81F701FA07F6B0FA3C
:1002F00080F700FA07F6C7F120071EBF20FA07FCB7
:1003000046EA0C062037B6FBF4FCA7EB0507103FC6
:1003100007F01F0BCBF120060CFA0BFB2CFA06F6AC
:1003200044BFB3460026202FA4BF5E464FF0000B0B
:100330005BEA060C08BF4FF0010B19EB0B09ABFB96
:10034000027C48EB0608C01B06FB02CC0BFB03CC6F
:1003500071EB0C01C1E70B46024641464846BDE839
:10036000F08B13B54FF000004FF00001AFF30080A9
:10037000BDE81C40704700000FB41CB50C0007AA74
:10038000009001D02044401E074B7B4469460190F9
:10039000069800F092F9002C03D06946002000F086
:1003A0009FF91CBC5DF814FB5D0300002DE9F041D2
:1003B0000E460446002020622046E168884730B39C
:1003C000252805D0D4E901219047206A401CF2E796
:1003D000E168204600278847050018D0A5F14100B4
:1003E000192802D820354FF40067324629462046A6
:1003F0002760FFF703FF40B1012804D0F61D26F067
:1004000007060836D8E7361DD6E72846DAE7206A19
:10041000BDE8F08170B50C460546012A05D0287864
:10042000800600D5EA69002302E0012305E05B1C99
:10043000934202D2E05C0028F9D1A869E618C01AFC
:10044000A861286A184428622846AFF3008004E0B7
:10045000D5E9012114F8010B9047B442F8D328469E
:10046000AFF3008070BD00002DE9F0410646002486
:1004700010687529314616A510D0AFF3008000280A
:1004800002DA404213A507E031688A0701D512A5B8
:1004900002E0490704D511A5012401E0AFF3008073
:1004A00000210A2206F1240709E0B0FBF2FCB0FBB0
:1004B000F2F302FB1C00303078541846491C002827
:1004C000F3D123462A463046BDE8F04100F096B805
:1004D000000000002D0000002B00000020000000A4
:1004E00070B5064600F086F80468054630460A22D4
:1004F000002100F018F92C6070BD30B505460B46A0
:100500002A4613F8014B12F8010B08B1A042F8D0AB
:100510001CB1002802D06D1CF1E7284630BD10B593
:10052000431C02E010F8011B71B18107FAD14FF0B2
:10053000013202C88C1A8C4314EAC211F9D0C01AD5
:100540000A0603D0C01E10BDC01A10BD0A0401D097
:10055000801E10BD0902FCD0401E10BD4FF00002ED
:100560000429C0F0128010F0030C00F01B80CCF1C5
:10057000040CBCF1020F18BF00F8012BA8BF20F833
:10058000022BA1EB0C0100F00DB85FEAC17C24BF87
:1005900000F8012B00F8012B48BF00F8012B704731
:1005A0004FF0000200B5134694469646203922BF0C
:1005B000A0E80C50A0E80C50B1F12001BFF4F7AF57
:1005C000090728BFA0E80C5048BF0CC05DF804EB39
:1005D000890028BF40F8042B08BF704748BF20F8A7
:1005E000022B11F0804F18BF00F8012B70477047A5
:1005F0007047704700487047980500202DE9F04784
:100600000D4699469246044600F124080168880682
:1006100004D5E06921F01001216000E00120A8422A
:1006200001DD471B00E00027A1697A1902EB0900F0
:10063000081AA0612078C00602D42046AFF30080DB
:10064000002608E0D4E901211AF806009047206A44
:10065000401C761C20624E45F4DB2078C0060AD58B
:100660002046AFF3008006E0D4E901213020904716
:10067000206A401C2062381EA7F10107F4DC07E065
:10068000D4E9012118F805009047206A401C206237
:10069000281EA5F10105F3DC2046AFF30080207889
:1006A000000602D50220BDE8F0870120FBE700002C
:1006B00001694A1C02610878704700B58FB0CDE926
:1006C00001310021059105497944CDE90310114616
:1006D0006846FFF76BFE0FB000BD0000E5FFFFFFAF
:1006E0000A6802F8010B0A607047D1E900239A42B8
:1006F00002D2531C0B601070704710B5436913B1E0
:10070000AFF3008001E0FFF785FE012010BD1278F5
:1007100000F124010A7000224A700122EDE71168FD
:100720004FF0FF32E9E72DE9F04791460F4680464A
:100730000446002614F8015B2DB100F031F8006882
:10074000405DC007F6D12B2D02D02D2D18D0641E90
:100750004A463946204600F02BF827B13968A142B5
:1007600001D1C7F800804FF0020471050BD540425B
:10077000002803DDFFF73EFF0460A007BDE8F08717
:1007800046F48066E4E70028F8DAFFF733FF0460F8
:100790006FF00040F2E70000004870479805002025
:1007A00010B500F079F8001D10BD00BFE52D000068
:1007B0002DE9F05F824615468B4600270AF10104B9
:1007C000B9460078302801D09DB113E014F8010B30
:1007D0000127782803D0582801D045B10AE00DB18F
:1007E000102D07D1002714F8010B102502E0082571
:1007F00000E00A250026B0460EE005FB080005FBD8
:1008000006F101271FFA80F801EB1046B6F5803F8C
:1008100000D3B94614F8010B294600F041F800282E
:10082000EBDABBF1000F05D00FB1641E00E05446B7
:10083000CBF80040B9F1000F06D0FFF7DBFE022134
:100840000160C81EBDE8F09F48EA0640FAE7754619
:10085000FFF7A2FFAE4605006946534620F00700A9
:10086000854618B020B5FFF7FDFCBDE820404FF0ED
:1008700000064FF000074FF000084FF0000B21F08A
:100880000701AC46ACE8C009ACE8C009ACE8C00957
:10089000ACE8C0098D46704700487047B805002095
:1008A0003A2800D2303820F02002412A01D3A2F1A8
:1008B0003700884201D34FF0FF30704710B504462F
:1008C000AFF300802046BDE81040FFF7B7BC000042
:1008D0004FF0013C50F8042B51F8043B9A4221D1CF
:1008E000A2EB0C03934313EACC1317D150F8042B5B
:1008F00051F8043B9A4215D1A2EB0C03934313EA3F
:10090000CC130BD150F8042B51F8043B9A4209D177
:10091000A2EB0C03934313EACC13DBD04FF000009F
:10092000704700BFD01A01BAB1FA81F101F0180185
:1009300022FA01F0CB40C1F12001DBB2C0B2C01AF3
:100940002CFA01F3D11A914311EAC311E6D1704791
:1009500001491820ABBEFEE726000200704710B523
:10096000002002F017F802F0B9F9002002F022F896
:10097000022000F0F9FA012002F00CF8022000F049
:10098000F3FABDE81040002002F004B810B50020D2
:1009900002F000F802F0A2F9012002F00BF80220A8
:1009A00000F0E2FA012001F0F5FF022000F0DCFA8D
:1009B000BDE81040002001F0EDBF70B506460024F0
:1009C00002F07CF90025002001F0E4FF022000F095
:1009D000CBFA012001F0DEFF6006040E01F0CCFF2F
:1009E00008B1641CE4B2012000F0BEFA6D1CEDB247
:1009F000082DE8D31EB1FFF7B2FF204670BDFFF708
:100A0000C5FFFAE770B5044602F068F9002001F06E
:100A1000C1FF0025200601D5012000E0002001F0E3
:100A2000C9FF6006040E022000F09EFA012001F0CA
:100A3000B1FF022000F098FA002001F0ABFF022085
:100A400000F092FA6D1CEDB2082DE3D370BD10B525
:100A5000012001F0AFFF012001F09CFF002001F018
:100A6000A9FFBDE81040002001F094BF10B502F0CE
:100A700035F9002001F08EFF002001F09BFF0420DB
:100A800000F072FA012001F085FF012001F092FFD1
:100A9000BDE81040042000F067BA10B5002402F051
:100AA0000DF9012001F086FF012000F05DFA012020
:100AB00001F070FF012000F057FA07E0641CE4B277
:100AC000FA2C03D9FFF7D2FF012010BD01F054FF2B
:100AD0000028F3D101F05EFF002010BD10B5012009
:100AE00002F00DF9012002F07FFC072002F07CFCEF
:100AF000BDE81040112002F077BCFEE7704700000F
:100B00002DE9F0474FF4FA79484600F01BFA604DA2
:100B100000264FF480672E8039465E48FFF71EFDA1
:100B2000741E234604225CA15D4801F0C7FA41F21D
:100B300070715CA000F06CF9002823464FF01002A1
:100B400058D059A15D4801F0B9FA01F044FF0121E4
:100B500054A2084602F070F82E8039464D48FFF73F
:100B6000FDFC2346082256A14D4801F0A7FA234672
:100B70000E2256A1514801F0A1FA01F02CFF0121EB
:100B800056A2084602F058F84FF47A7000F0DAF9ED
:100B90002E8039463F48FFF7E1FC23460D2251A144
:100BA0003F4801F08BFA40F6B8313EA000F030F932
:100BB000002823464FF017021ED04EA13F4801F0F7
:100BC0007DFA01F008FF012150A2084602F034F836
:100BD0002E8039462F48FFF7C1FC23461D224EA127
:100BE0002F4801F06BFA354600F0CEFA074642F284
:100BF00010781FE050A100E054A1304801F05EFAE7
:100C000001F0E9FE012157A2084602F015F8484616
:100C100036E000BF00F0E0F854A11E48FFF76DFC7D
:100C200000B1012655A11B48FFF767FC00B1012563
:100C300006B125B900F0A8FAC11B4145EAD3234605
:100C40000E2251A11D4801F039FA01F0C4FE012124
:100C500051A2084601F0F0FFB6B1ADB1234614220F
:100C600050A1164801F02AFA01F0B5FE01210DA2AB
:100C7000084601F0E1FF5149012008704FF4FA6085
:100C8000BDE8F04700F05EB9234614224CA1B4E75A
:100C9000240000207800002041540D0A00000000CC
:100CA000080500204F4B00004154E6B58BE8AF9596
:100CB000E6ADA3E5B8B80D0A00000000C0040020AE
:100CC00041542B5253540D0A00000000E6A8A1E540
:100CD0009D97E5A48DE4BD8D0D0A000041542B5273
:100CE0005354000041542B43574D4F44453D310D63
:100CF0000A000000E5BC80E590AF535441E6A8A18E
:100D0000E5BC8FE68890E58A9F0D0A0043574D4F5A
:100D10004445204F4B00000041542B43574A41505B
:100D20003D2252454C4A59222C2262616261626125
:100D30006261220D0A0000004154E6B58BE8AF95D0
:100D4000E5A4B1E8B4A50D0A00000000E5BC80E50B
:100D500090AF535441E6A8A1E5BC8FE5A4B1E8B437
:100D6000A50D0A004552524F52000000574946490E
:100D700020434F4E4E454354454400005749464991
:100D800020474F5420495000E8BF9EE68EA5E7BD9E
:100D900091E7BB9C0D0A000041542B43574A415038
:100DA00000000000E7BD91E7BB9CE8BF9EE68EA572
:100DB000E68890E58A9F0D0A0000000000000020F0
:100DC000E7BD91E7BB9CE8BF9EE68EA5E5A4B1E830
:100DD000B4A50D0A000000000A4800680168C94374
:100DE00089060ED44068084BC2B240F2FF31188821
:100DF000884206D205490A54401C80B2188000225D
:100E00000A547047080500202400002078000020C4
:100E100070B5A2B00D46064600F0B6F9044609E0EA
:100E2000FFF7DAFF31461048FFF767FB10B10120EA
:100E300022B070BD00F0A8F9001BA842F0D30A4808
:100E40000090334609A2802101A8FFF795FA01A876
:100E5000FFF765FB82B24FF0FF3301A90A4801F0AA
:100E60002DF90020E4E70000780000205761697444
:100E70002025732074696D656F75742C206275660A
:100E80003A25732E2E2E0000C00400202DE9F041DB
:100E90000446876D00F078F9064694F83500002581
:100EA000022806D08020606584F834500120BDE817
:100EB000F0812068016821F0160101602068416915
:100EC00021F080014161206C08B9A06C20B120683C
:100ED000016821F0080101602068016821F001012A
:100EE00001600CE000F050F9801B052807D9202094
:100EF0006065032084F8350084F83450D7E7206813
:100F00000068C007EED194F85C103F208840B860BC
:100F1000012084F8350084F834500020C7E790F8A9
:100F20003510022903D08021416501207047052139
:100F300080F835100068016821F00101016000208F
:100F40007047000070B5044600F01EF90546601CAD
:100F500002D004480078044400F016F9401BA04277
:100F6000FAD370BD280000200449054A0968B1FB86
:100F7000F2F14143491EFDD27047000034000020C9
:100F800040420F002DE9F84FDFF8BCA100220125F7
:100F900003264FF00F090AF1040BAAF1040E00BF5B
:100FA0000B6805FA02F42340A34270D10F7907F0D1
:100FB0000307012F01D0022F16D187684FEA42089C
:100FC00006FA08FC27EA0C07D1F80CC00CFA08FC5A
:100FD0004CEA070CC0F808C04768A7430C79C4F373
:100FE000001494403C4344600C79E443A4070AD0C5
:100FF000C4684FEA420C06FA0CF7BC438F6807FA44
:101000000CF72743C7600C7904F00304022C12D1BB
:10101000D40800EB840CDCF820405707FF0E09FAD7
:1010200007F824EA0804D1F8108008FA07F848EA1B
:101030000408CCF8208004684FEA420C06FA0CF74A
:10104000BC430F7907F0030707FA0CF72743076043
:101050004C6814F4403F70D03C4C276847F48047FC
:101060002760246822F0030704F480440094384C7D
:1010700007EB040CDCF8084897074FEA177809FAE1
:1010800008F7BC43334FB84202D1002724E054E0B4
:10109000314FB84201D101271EE0304FB84201D193
:1010A000022719E02E4FB84201D1032714E02D4F3B
:1010B000B84201D104270FE02B4FB84201D10527D8
:1010C0000AE02A4FB84201D1062705E0284FB8426E
:1010D00001D1072700E0082707FA08F72743CCF8D3
:1010E0000878DAF800405746D1F804C09C435FEA1C
:1010F000CC2C00D51C433C60DBF800405F46D1F8A7
:1011000004C09C435FEA8C2C00D51C433C60DEF895
:1011100000407746D1F804C09C435FEA8C3C00D580
:101120001C433C60084F083F3C68D1F804C09C4316
:101130005FEACC3C00D51C433C60521C102AFFF4F3
:101140002FAFBDE8F88F0000083C01404438024052
:10115000003001400000024000040240000802404C
:10116000000C02400010024000140240001802402F
:10117000001C02400069084000D0012070470AB1FD
:10118000816170470904FBE70148806870470000EF
:10119000280000200248816802781144816070476D
:1011A000280000200B4810B5016841F4007101606F
:1011B000016841F480610160016841F4807101605F
:1011C000032000F06FF80F2000F006F800F024F87C
:1011D000002010BD003C024070B50D4D04464FF498
:1011E0007A712878B1FBF0F00A490968B1FBF0F098
:1011F00000F00AFB48B9102C07D200222146501EED
:1012000000F030F800206C6070BD012070BD00005F
:1012100028000020340000200A4808B5016841F485
:1012200080410160006800F4804000900548001F84
:10123000016841F080510160006800F0805000902A
:1012400008BD000044380240002809DB00F01F02FE
:10125000012191404009800000F1E020C0F8001118
:1012600070470000F0B40E4B1B680C46C3F302231A
:10127000C3F10705042D00D90425191D072901D242
:10128000002300E0DB1E012606FA05F1491E21407D
:1012900099409E40761E16403143F0BC02F07BB868
:1012A0000CED00E0064900F0070208684FF6FF0366
:1012B000184040EA0220034A1043086070470000CB
:1012C0000CED00E00000FA052DE9F0470E460500A0
:1012D00065D0DFF81481D8F80000F7B200F00700FD
:1012E000B04207D288F80070D8F8000000F007007C
:1012F000B04254D128683D4C810712D5400703D530
:10130000206840F4E05020602878000703D520686A
:1013100040F4604020602068A96820F0F000084395
:1013200020602878C0072DD0304968680839012826
:1013300012D0022813D0032811D009688907002988
:101340002DDA216821F0030101432160FFF71CFF22
:10135000814641F2883A0EE009688903EFE709689F
:101360008901ECE7FFF710FFA0EB0901514502D915
:101370000320BDE8F0872068696800F00C00B0EB3E
:10138000810FEFD1D8F80010404601F00701B142BB
:1013900007D90770006800F00700B04201D00120B3
:1013A000E7E72878400705D52068E96820F4E05091
:1013B000084320602878000706D52068296920F4B2
:1013C000604040EAC100206000F038F82168084A17
:1013D000C1F30311515CC840064908600648006823
:1013E000FFF7FAFE0020C4E7003C02400838024044
:1013F000B63B0008340000202C00002004480549BA
:1014000000680968044AC1F38221515CC8407047F2
:101410003400002008380240C63B00080448054953
:1014200000680968044AC1F34231515CC840704702
:101430003400002008380240C63B0008154810B5AB
:10144000006810F00C02144813D04110042A0FD089
:10145000082A0ED10F4C241F2268236802F03F0295
:101460005B0207D52068C0F38810A0FB010106E0ED
:10147000084610BD2168C1F38811A1FB00010023BB
:10148000FEF702FF2168C1F30141491C4900B0FB8E
:10149000F1F010BD083802400024F4002DE9F84FA7
:1014A00004006ED02078DFF84C93C007A9F1040542
:1014B0004AD009F104000168C1F38101012908D073
:1014C0000068C0F3810002280AD1D9F80000400268
:1014D00006D52868800337D560680028E1D033E05E
:1014E0006068B0F5803F10D0B0F5A02F286810D00C
:1014F00020F480302860286820F48020286060680C
:10150000A8B1FFF741FE06460DE0286840F48030A0
:10151000F4E740F480202860F7E700BFFFF734FECF
:10152000801B642873D828688003F7D50CE0FFF788
:101530002BFE064605E000BFFFF726FE801B642851
:10154000F0D828688003F7D42078DFF8AC828007D1
:101550004FF0000A3ED5A748001D016811F00C0F9E
:1015600008D00068C0F3810002280BD1D9F8000030
:10157000400207D42868800716D5E068012800D10A
:1015800012E033E1E068B8B10120C8F80000FFF7CD
:10159000FBFD064605E000BFFFF7F6FD801B0228B5
:1015A000C0D828688007F7D52868216920F0F8009E
:1015B00040EAC10028600DE0C8F800A0FFF7E4FD94
:1015C000064604E0FFF7E0FD801B02281FD82868CC
:1015D0008007F7D42078000722D5864F87486169B5
:1015E000703771B101210160FFF7CEFD064604E0BE
:1015F000FFF7CAFD801B022809D838688007F7D595
:101600000EE0C0F800A0FFF7BFFD064605E082E04F
:10161000FFF7BAFD801B02287DD838688007F7D411
:101620002078400768D5DFF8CCB100270BF13C0BE0
:10163000DBF80000C0000BD4DBF8001041F0805153
:10164000CBF80010DBF80000012700F0805000907C
:101650006B4E3068C00510D4306840F48070306044
:10166000FFF792FD009005E0FFF78EFD0099401A0C
:10167000022850D83068C005F6D55E4EA0686C369A
:1016800001280FD00528306810D020F0010030600C
:10169000306820F004003060A068B8B1FFF774FD36
:1016A00000900FE0306840F00100F4E740F00400E3
:1016B0003060F7E7FFF768FD0099411A41F2883082
:1016C000814266D830688007F4D50EE0FFF75CFDF4
:1016D000009007E0FFF758FD0099411A41F2883069
:1016E000814256D830688007F4D42FB1DBF800105F
:1016F00021F08051CBF80010A069C8B33D49091D05
:101700000968C1F3810102294AD00228504607D056
:10171000C8F8600000E03CE0FFF736FD04463BE01F
:101720004746C8F86000FFF72FFD064605E000BFFA
:10173000FFF72AFD801B02282BD828688001F7D4E8
:10174000D4E907010843A16A2E4A490802EB014186
:10175000626A41EA8211084394F82C1040EA016160
:10176000C9F8001001203866FFF70EFD044606E0B8
:101770003EE000BFFFF708FD001B022809D82868DB
:101780008001F7D534E000BFFFF7FEFC001B022804
:1017900002D90320BDE8F88F28688001F4D427E03F
:1017A0000128F7D0D9F80000E26900F480019142E5
:1017B0001CD1226A00F03F01914217D147F6C07157
:1017C000626A0140B1EB821F10D1A26A4FF0FF3371
:1017D00000F4403103EB5202B1EB024F06D194F812
:1017E0002C1000F07060B0EB016F01D00120D1E748
:1017F0000020CFE70438024000004742800E4742F5
:10180000007000400000FFFF10B5401EB0F1807F67
:1018100001D3012010BD4FF0E02460610F2160175B
:1018200001F0B9FD0020A06107202061002010BD5B
:1018300070B590F83C20012A32D0012480F83C4059
:10184000022280F83D2003685A689D6822F07006E5
:101850000A6832435A60134B02689A4214D0B2F1BC
:10186000804F11D0104B9A420ED0104B9A420BD0A1
:101870000F4B9A4208D00F4B9A4205D00E4B9A421A
:1018800002D00E4B9A4204D1496825F080031943D7
:10189000916080F83D40002180F83C10084670BD02
:1018A000022070BD0000014000040040000800401C
:1018B000000C0040000401400040014000180040BE
:1018C00010B5040003D094F83D0010B107E00120EA
:1018D00010BD002084F83C00204600F01FF80220D4
:1018E00084F83D00211D206801F06CFA012084F885
:1018F000460084F83E0084F83F0084F8400084F8F5
:10190000410084F8420084F8430084F8440084F8DD
:10191000450084F83D00002010BD000008B50068B7
:101920000649884208D10648016841F00201016079
:10193000006800F00200009008BD000000040040B4
:101940004038024070B5044690F83C00002501285C
:1019500017D0012684F83C60022084F83D002068FE
:10196000826822F0770222F47F4282600868502861
:1019700038D00DDC20284FD005DC90B3102811D1D1
:101980004AE0022070BD302846D040280AD13BE012
:1019900060282FD070280DD0B0F5805F03D0B0F54F
:1019A000005F12D0012584F83D60002084F83C00DF
:1019B000284670BDCB68D1E90121206801F077FA93
:1019C0002068816841F0770109E0CB68D1E9012105
:1019D000206801F06CFA2068816841F480418160E0
:1019E000E1E719E0CA684968206801F035FB502139
:1019F000206806E0CA684968206801F03EFB602163
:101A0000206801F05EFACEE7CA684968206801F0F4
:101A100023FB40212068F4E7226801461046F0E7E6
:101A200010B586B0044614216846FEF7B9FD0D498D
:101A30002068884214D10C480021026842F001025B
:101A40000260006800F001000590802000900220F4
:101A5000CDE90101CDE9031069460448FFF792FA88
:101A600006B010BD000400403038024000000240C3
:101A700070B5044690F83C0000260D4601280FD0B2
:101A8000012084F83C006AB1042A1DD0082A2FD016
:101A90000C2A3FD00126002084F83C00304670BD5F
:101AA000022070BD206801F015FA2068816941F0BC
:101AB000080181612068816921F004018161206849
:101AC00081692A69114311E0206801F033FA206826
:101AD000816941F4006181612068816921F480613C
:101AE0008161206881692A6941EA02218161D2E726
:101AF000206801F055FA2068C16941F00801C16110
:101B00002068C16921F00401C1612068C1692A69A6
:101B1000114311E0206801F077FA2068C16941F4AF
:101B20000061C1612068C16921F48061C1612068E0
:101B3000C1692A6941EA0221C161ACE710B504001C
:101B400003D094F83D0010B107E0012010BD002043
:101B500084F83C00204600F01EF8022084F83D0086
:101B6000211D206801F02EF9012084F8460084F838
:101B70003E0084F83F0084F8400084F8410084F877
:101B8000420084F8430084F8440084F8450084F857
:101B90003D00002010BD704710B50446022249B137
:101BA00004290ED0082913D094F84100012816D03A
:101BB000012010BD94F83E000128F9D184F83E20A0
:101BC0000FE094F83F000128F2D184F83F2008E0AC
:101BD00094F840000128EBD184F8402001E084F81B
:101BE00041200122206801F055F916492068164A63
:101BF000884201D0904203D1436C43F400434364D4
:101C00002068884213D0B0F1804F10D00F4988422D
:101C10000DD00F4988420AD00E49884207D0904221
:101C200005D00D49884202D00C49884204D1816810
:101C300001F00701062903D0016841F001010160AC
:101C4000002010BD000001400004014000040040DD
:101C500000080040000C0040004001400018004017
:101C600070477047F8B5016804460868CA684B6950
:101C700010F00F0F4FF0000559D003F0010602F4E9
:101C80009077374365D0C10705D0D10503D5616C86
:101C900041F001016164410705D5D90703D0616CAA
:101CA00041F002016164810705D5D90703D0616C59
:101CB00041F004016164010707D502F020013143BE
:101CC00003D0616C41F008016164616C00293AD075
:101CD000800604D5900602D5204601F00EFA206851
:101CE0004069616CC0F38010090700D460B32046DE
:101CF00001F0DCF920684069400621D520681430E5
:101D000050E8001F21F0400140E80012002AF5D100
:101D1000E06BA8B172490165E06BFFF700F900289C
:101D200011D0E06B016D01B0BDE8F04008478306BB
:101D30000FD593060DD52046BDE8F84001F0DDB97A
:101D40002046FFF78EFFF8BD2046FFF78AFF656447
:101D5000F8BD266B2023012E7ED1C6067CD5D60683
:101D60007AD508684868009048694FF00206400636
:101D70004DD5E26B106840684FF480770004000C8A
:101D80003AD0A18D814237D9E085D069B8422DD0B3
:101D900020680C3050E8001F21F4807140E80012E8
:101DA000002AF5D12068143050E8001F21F001010D
:101DB00040E80012002AF5D12068143050E8001FD6
:101DC00021F0400140E80012002AF5D184F84230A9
:101DD000256320680C3050E8001F21F0100140E816
:101DE0000012002AF5D1E06BFFF750F86663A08D72
:101DF000E18D401A81B206E0A18D8142A8D1D0695F
:101E0000B842A5D166632046FFF72AFFF8BDA08D32
:101E1000E18D401A81B2E08D0028F7D00029F5D07D
:101E200020680C3050E8002F22F4907240E8002720
:101E3000002FF5D12068143050E8002F22F0010265
:101E400040E80027002FF5D184F842302563206850
:101E50000C3050E8002F00E006E022F0100240E8CD
:101E60000023002BF3D1CDE705062BD5150629D588
:101E700094F841002128C9D1A068B0F5805F01D154
:101E80002069B0B1206A411C216221680078486055
:101E9000E08C401E0004000CE084B7D12068C168CB
:101EA00021F08001C1602068C16841F04001C1603B
:101EB000F8BD206A0088C0F308004860206A801CD2
:101EC0002062E5E74006F3D55006F1D5CA68204602
:101ED00022F04002CA6084F8413000F03FF9F8BDBA
:101EE0009F30000870B5040004D094F8410000252C
:101EF00010B106E0012070BD84F84050204600F08B
:101F000023F8242084F841002068C16821F400519E
:101F1000C160204601F052F92068016921F4904126
:101F200001612068416921F02A0141612068C1688E
:101F300041F40051C1606564202084F8410084F8B8
:101F400042006563002070BDF0B587B004461421DF
:101F50006846FEF725FB464A2368002445490225CA
:101F6000032607274448934221D1424A143213687A
:101F700043F010031360126802F0100205920A6821
:101F800042F001020A60096802AA01F0010105910C
:101F90007102CDE9001582E8D0006946FEF7F2FF34
:101FA000002202212520FFF75DF9252037E0314A84
:101FB000DFF8C8C01032634535D1136843F40033ED
:101FC0001360126802F4003205920A6842F00102BE
:101FD0000A600A6802F0010205920A6842F00802EB
:101FE0000A60096802AB01F0080105910821CDE9FA
:101FF0000015012183E8C2006946FEF7C3FF2020D7
:10200000CDE9000502AB694683E8D0001C48FEF725
:10201000B9FF002201212620FFF724F92620FFF72F
:1020200013F907B0F0BD17488342FAD1106840F4A5
:1020300080201060106800F480200590086840F04F
:1020400002000860086802AB00F0020005904FF43F
:102050004060CDE9000583E8D00069460A48FEF7F4
:1020600091FF002203212720FFF7FCF82720D6E765
:10207000001001403038024000000240004400409F
:10208000000C0240004800400004024090F842303A
:10209000202B01D00220704721B11AB10023036325
:1020A00001F012B90120704700680349884201D14C
:1020B00000F096B870470000004800402DE9F84352
:1020C000044690F84100984616460D46202802D056
:1020D0000220BDE8F88385B17EB100206064212034
:1020E00084F84100FFF750F8A6848146E684A06892
:1020F0002027B0F5805F02D003E00120E9E72069E6
:1021000010B12E4600250EE000260CE0802120466E
:1021100001F0F5F8A8B9C6B116F8010B21684860BE
:10212000E08C401EE084E08C4B464FF00002CDF87E
:1021300000800028EAD14FF04001204601F0DFF88E
:1021400040B184F841700320C3E735F8020BC0F3B7
:102150000800E3E784F841700020BAE77047FEE723
:1021600070B5164E3078002826D0FFF70DF8B1680C
:10217000401AB42820D3124831780024445411A1C5
:10218000FEF7BBF9B51C58B10120287010A10C480E
:10219000FEF7B3F958B10A30FEF7A2F9688006E0FD
:1021A0000EA10748FEF7A9F908B12C706C804021F8
:1021B0000348FEF7D3F9347070BD0000040000201E
:1021C0003800002064697374616E6365000000006C
:1021D00064697374616E63653A2000004F4646007F
:1021E00010B5FEF7D1FF0B4CA0602078401CC0B2A8
:1021F0002070402805D30020207040210648FEF7BB
:10220000ADF921780448BDE810400144012203489B
:10221000FFF73CBF040000203800002050050020DC
:1022200004210148FFF7B8BC78040020B0F57A7F9C
:1022300001D340F2E7300249096888637047000023
:10224000780400202DE9F047714D00244FF4806799
:102250002C8039466F48FEF781F9661E33461522F9
:102260006DA17348FFF72AFFC820FEF77DFE3346B5
:10227000B62270497048FFF721FF41F2707841465D
:102280006EA0FEF7C5FD4FF4FA7A002833464FF0F2
:102290001B0278D06AA16648FFF710FFC820FEF73E
:1022A00063FE00F098FB012164A2084600F0C4FC24
:1022B00040F6B830FEF746FE2C8039465548FEF70A
:1022C0004DF93346182265A15948FFF7F7FEC8209B
:1022D000FEF74AFE33462B2267A15748FFF7EEFE72
:1022E0004FF4FA5155A0FEF793FD002833464FF006
:1022F0001E0271D06BA14E48FFF7E0FE00F06BFBB1
:1023000001214EA2084600F097FC4FF47A79484626
:10231000FEF718FE2C8039463E48FEF71FF933467B
:102320002D2268A14248FFF7C9FE33464322714976
:102330004148FFF7C3FEC820FEF716FE41463FA006
:10234000FEF766FD002833464FF00F024AD06AA11F
:102350003748FFF7B3FE00F03EFB012137A20846E5
:1023600000F06AFC4846FEF7EDFD2C80394629480E
:10237000FEF7F4F833462D2263A12D48FFF79EFEA9
:1023800033463C2200E01EE06BA12B48FFF796FE8F
:1023900041462AA0FEF73CFD002833464FF00F02CD
:1023A00025D055A12248FFF789FE00F014FB01213A
:1023B00071A2084600F040FC2C803946BDE8F04789
:1023C0001448FEF7CBB870A11948FFF777FEC82074
:1023D000FEF7CAFD02E0FFE772A104E000F0FBFA9D
:1023E00078A20BE079A11248FFF768FEF6E777A123
:1023F0000F48FFF763FE00F0EEFA78A201210846CD
:1024000000F01AFC5046BDE8F047FEF79BBD000007
:102410002400002078000020E8AEBEE7BDAEE794BF
:10242000A8E688B7E5B19EE680A7200D0A00000067
:10243000C0040020D03B0008080500204F4B0000DE
:10244000E8AEBEE7BDAEE794A8E688B7E5B19EE684
:1024500080A7E68890E58A9F200D0A00E8BF9EE6E7
:102460008EA54F6E654E4554E69C8DE58AA1E59993
:10247000A8200D0A0000000041542B4D5154544334
:102480004F4E4E3D302C226D717474732E6865630F
:102490006C6F7564732E636F6D222C313838332C5A
:1024A000310D0A004F6E654E4554E69C8DE58AA1BC
:1024B000E599A8E8BF9EE68EA5E68890E58A9F206C
:1024C0000D0A0000E8AEA2E99885E2809CE8AEBE65
:1024D000E5A487E5B19EE680A7E4B88AE68AA5E58B
:1024E000938DE5BA94E2809DE4B8BBE9A298200DF3
:1024F0000A000000883C0008E8AEA2E99885E6885A
:1025000090E58A9F200D0A00E8AEA2E99885E28056
:102510009CE8AEBEE5A487E5B19EE680A7E8AEBE26
:10252000E7BDAEE8AFB7E6B182E2809DE4B8BBE9B3
:10253000A298200D0A00000041542B4D51545453D1
:1025400055423D302C22247379732F5A494A7879A9
:1025500059685352362F6D79746573742F74686996
:102560006E672F70726F70657274792F7365742245
:102570002C300D0A0000000041542B4D515454538F
:1025800055423A7365740000E8AEBEE7BDAEE7940D
:10259000A8E688B7E5B19EE680A7E5A4B1E8B4A5B2
:1025A000200D0A004F6E654E4554E69C8DE58AA1CC
:1025B000E599A8E8BF9EE68EA5E5A4B1E8B4A520FC
:1025C0000D0A00004552524F52000000E8AEA2E949
:1025D0009885E5A4B1E8B4A5200D0A0041542B4D1F
:1025E0005154545355423A4552524F520000000044
:1025F000F0B5C1B003463AA280216846FDF7BCFEA3
:102600006846FDF78CFF85B22B46434A802120A8FF
:10261000FDF7B2FE4FF0FF34234621223FA1484888
:10262000FFF74CFD20A8FDF77AFF82B2234620A9D0
:102630004448FFF743FDC820FEF796FC41F2707650
:10264000314641A0FEF7E4FB4FF4FA770028234619
:102650004FF01B0234D03DA13948FFF72FFD052074
:10266000FEF770FCC820FEF77FFC3F490020088081
:102670004FF480613D48FDF771FF234615223CA1D0
:102680002F48FFF71BFDC820FEF76EFC23462A46A5
:1026900069462C48FFF712FD31463BA0FEF7B8FB18
:1026A00023464FF0150280B138A12548FFF706FDFB
:1026B00023462A4669462248FFF700FD41B0F0BD97
:1026C00038A11F48FFF7FAFC06E03DA11C48FFF7C0
:1026D000F5FC0520FEF736FC3846FEF733FCEDE747
:1026E0007B226964223A22313233343536222C225D
:1026F000706172616D73223A7B226C696768745FE6
:102700007374617465223A7B2276616C7565223A36
:1027100025647D7D7D000000CC3C0008E58786E5D2
:10272000A487E59091E4BA91E5B9B3E58FB0E58F60
:1027300091E98081E695B0E68DAE200D0A0000009B
:10274000C0040020080500203E000000E58786E563
:10275000A487E58F91E98081E695B0E68DAEE688A5
:1027600090E58A9F200D0A002400002078000020B8
:10277000E6ADA3E59CA8E58F91E98081E695B0E6FA
:102780008DAE200D0A0000004F4B0000E695B0E62C
:102790008DAEE4B88AE4BCA0E68890E58A9F200D5F
:1027A0000A000000E58786E5A487E58F91E980812E
:1027B000E695B0E68DAEE5A4B1E8B4A5200D0A001B
:1027C000E695B0E68DAEE4B88AE4BCA0E5A4B1E835
:1027D000B4A5200D0A0000002DE9F04F87B01421A8
:1027E0006846FDF7DDFE38480024016841F08001AD
:1027F0000160016801F080010591016841F0040168
:102800000160016801F004010591016841F00101D6
:102810000160016801F001010591016841F00201C8
:102820000160016801F002010591016841F00801B1
:1028300001600068254E00F008000590012241214A
:102840003046FEF79CFCDFF88890002214214846B1
:10285000FEF795FCDFF87CA04FF4004801224146CA
:102860005046FEF78CFCDFF870B00022C0215846BD
:10287000FEF785FC412000900125CDE90154694611
:1028800030460394FEF77EFB142011260227CDE983
:102890000006CDE9024769464846FEF773FBCDF8CE
:1028A0000080CDE90154694650460394FEF76AFB67
:1028B000C020CDE90006CDE9024769465846FEF73B
:1028C00061FB07B0BDE8F08F3038024000080240DD
:1028D00000000240000C02400004024010B58EB01F
:1028E00000240794089409940A940B941C216846C8
:1028F0000C94FDF755FE1E481C4901605321C0E9A8
:10290000011440F2E731C0E903148461FEF7D8FFF7
:1029100008B172B6FEE74FF48050079007A914483B
:10292000FFF710F808B172B6FEE71148FFF706F995
:1029300008B172B6FEE70B940BA90D480C94FEF794
:1029400077FF08B172B6FEE76020CDE9000402947B
:102950000422694606480494FFF78AF808B172B663
:10296000FEE70348FFF75CF80EB010BD000400401E
:1029700078040020FEE7000010B580210448FEF72F
:10298000F9FB03460A20FEF7EFFA184610BD0000D7
:102990000004024010B508B1012200E000224021ED
:1029A0000348FEF7ECFBBDE810400A20FEF7DCBA56
:1029B0000004024010B508B1012200E0002280218D
:1029C0000348FEF7DCFBBDE810400A20FEF7CCBA56
:1029D00000040240FEE710B5A0B080216846FDF774
:1029E000DFFD00240021204600F0F2F88021684637
:1029F00000F046F9641CE4B2082CF3D320B010BDFB
:102A000010B56420FEF79EFA064C012204212046F0
:102A1000FEF7B5FB20460122BDE810401021FEF76D
:102A2000AEBB0000000002402DE9F04100241B4D28
:102A30000746802626FA04F0384201D0012200E041
:102A4000002210212846FEF79AFB0320FEF78CFA9D
:102A5000012204212846FEF792FB0520FEF784FAA6
:102A6000002204212846FEF78AFB0320FEF77CFAA9
:102A7000641CE4B2082CDDD3012204212846FEF7B1
:102A80007EFB0520FEF770FA002204212846FEF79F
:102A900076FBBDE8F0410320FEF766BA0000024075
:102AA00010B5104C012210212046FEF768FB0122D0
:102AB00004212046FEF763FB0520FEF755FA0022AD
:102AC00010212046FEF75BFB0520FEF74DFA0022A1
:102AD00004212046FEF753FBBDE810400520FEF719
:102AE00043BA00000000024010B50D4C0022102136
:102AF0002046FEF744FB0520FEF736FA01220421AA
:102B00002046FEF73CFB0520FEF72EFA012210219D
:102B10002046FEF734FBBDE810400520FEF724BA3E
:102B20000000024010B500204FF47A720021491CC9
:102B30009142FCD3401C9042F8D3FFF761FFAE20D6
:102B400000F08DF8D52000F08AF8802000F087F89A
:102B5000A82000F084F83F2000F081F8D32000F096
:102B60007EF8002000F07BF8402000F078F8A120EB
:102B700000F075F8C82000F072F8DA2000F06FF865
:102B8000122000F06CF8812000F069F8CF2000F0EE
:102B900066F8D92000F063F8F12000F060F8DB203F
:102BA00000F05DF8302000F05AF8A42000F057F84B
:102BB000A62000F054F88D2000F051F8142000F009
:102BC0004EF8AF2000F04BF8BDE81040FFF703BF10
:102BD00010B50C4640F0B00000F041F8102040EA7B
:102BE000141000F03CF804F00F00BDE8104000F0B5
:102BF00036B8000070B54000801EC5B2C8000D4B4D
:102C00000838C6B203EB021431462846A4F5007416
:102C1000FFF7DEFF0821204600F032F86D1CE8B215
:102C20003146FFF7D5FF04F10800BDE870400821E8
:102C300000F026B8C63500082DE9F04115460E46CD
:102C40000746002406E03019C1B23846FFF7D2FF2C
:102C5000641CE4B22A5D002AF5D1BDE8F08110B50C
:102C60000446FFF71DFF7820FFF7DEFE0020FFF788
:102C7000DBFE2046FFF7D8FEBDE81040FFF734BF6B
:102C800070B50D46060016D0002D14D0FFF708FFD2
:102C90007820FFF7C9FE4020FFF7C6FE002404E0BD
:102CA000305DFFF7C1FE641CE4B2AC42F8D3BDE86E
:102CB0007040FFF719BF70BD7047000000B585B0C8
:102CC0008020009002200390002001906946024875
:102CD000FEF758F905B000BD0004024000B585B00C
:102CE0008020009002200390012001906946024854
:102CF000FEF748F905B000BD00040240704710B56A
:102D00000446FDF7A4FE4620FDF77CFE2046FDF7B5
:102D100079FEBDE81040FDF7A9BEFEF73BBA000002
:102D200030B593B030216846FDF73AFC14210CA869
:102D3000FDF736FC1D480025016841F08051016017
:102D4000006800F0805011901948016841F48041FA
:102D500001600068022400F480401190012000907E
:102D6000000401908001CDE9064008AA0420A821B2
:102D700082E813000B906846FEF790FB08B172B62C
:102D8000FEE70CA90F2081E831004FF4A0500F900E
:102D90004FF48050109005210CA8FEF795FA0028FA
:102DA00001D072B6FEE713B030BD000040380240DB
:102DB000007000400248016841F4700101607047F2
:102DC00088ED00E0F0B50268274B284D284E294FCA
:102DD000294C4FF0804C984209D0604507D0A8425A
:102DE00005D0B04203D0B84201D0A04204D122F0B5
:102DF000700E4A6842EA0E0298421BD0604519D014
:102E0000A84217D0B04215D0B84213D0A04211D07A
:102E10001A4DA8420ED01A4DA8420BD0194DA84207
:102E200008D0194DA84205D0184DA84202D0184D1F
:102E3000A84203D122F44075CA682A434D6922F0A2
:102E400080022A438D68C5620D688562984201D070
:102E5000A04201D109690163016841F004010160E8
:102E6000012141610260F0BD00000140000400400A
:102E700000080040000C00400004014000400140F8
:102E8000004401400048014000180040001C004080
:102E90000020004010B501F01F030121046A994091
:102EA0008C430462016A9A401143016210BD10B55F
:102EB000846842EA032224F47F440A432243826066
:102EC00010BD826822F070020A4342F0070181605F
:102ED00070470000F0B5036A026A22F00102026244
:102EE00042688469124E24F073050C682C4323F069
:102EF00002058B682B430D4DA84201D0B04205D18D
:102F000023F00807CB683B4323F00403A84201D019
:102F1000B04205D14D6922F4407215438A692A43B3
:102F200042608461496841630362F0BD0000014072
:102F300000040140F0B5026A036A23F01003036243
:102F4000436884690D6824F4E64444EA05248D68E6
:102F500022F0200242EA05120F4D104EA84201D085
:102F6000B04206D1CF6822F0800242EA071222F076
:102F70004002A84201D0B04207D14D6923F440631A
:102F800043EA85038D6943EA8503436084614968A8
:102F900081630262F0BD00000000014000040140B6
:102FA000F0B5026A036A23F4807303624368C4695C
:102FB00022F4007224F073050C68124E2C438D68C5
:102FC00042EA05220E4DA84201D0B04206D1CF6898
:102FD00022F4006242EA072222F48062A84201D071
:102FE000B04207D14D6923F4405343EA05138D697C
:102FF00043EA05134360C4614968C1630262F0BDDE
:10300000000001400004014030B5046A026A22F465
:10301000805202624268C3690D6823F4E64343EAC2
:1030200005238D6824F4005444EA0534084DA84271
:1030300002D0084DA84204D14D6922F4804242EAF0
:1030400085124260C36149680164046230BD0000BA
:10305000000001400004014010B5036A046A24F036
:1030600001040462846924F0F00444EA021423F0A9
:103070000A020A438461026210BD10B5036A046A41
:1030800024F010040462846923F0A00324F4704443
:1030900044EA023243EA01118261016210BD10B5B7
:1030A000806B0021C185FEF7DCFD10BD01680C318D
:1030B00051E8002F22F4907241E80023002BF5D153
:1030C0000168143151E8002F22F0010241E8002389
:1030D000002BF5D1016B012909D101680C3151E8B0
:1030E000002F22F0100241E80023002BF5D120210F
:1030F00080F8421000210163704708B590F8421033
:10310000222901D0022008BD82684FF480539A42E0
:1031100001D1016921B1816A9A421BD04AB10AE00A
:103120000268816A5268C2F308020A80816A891CB7
:1031300008E0026972B10268526802F07F020A7008
:10314000816A491C8162C18D491E0904090CC1852F
:1031500003D01BE002685268F1E70168CA6822F0F8
:103160002002CA600168CA6822F48072CA600168DD
:103170004A6922F001024A61202180F842100021B0
:103180004163026B012A03D0FEF78EFF002008BDC9
:10319000016301680C3151E8002F22F0100241E870
:1031A0000023002BF5D101680A68D20602D50A680F
:1031B00049680091818DFEF753FDE7E770B504463D
:1031C00000680169E26821F44051114301612169FD
:1031D000A068E26908436169114308432168CA682D
:1031E00049F20C639A430243CA6020684169A269AC
:1031F00021F440711143416131492068884202D075
:103200003049884202D1FEF709F901E0FEF7F6F8ED
:10321000E2690023192164253226B2F5004F626865
:1032200028D0A0FB0101930F9200FDF72DF8014675
:10323000B0FBF5F06FF01802504301EB800006EB95
:103240000010B0FBF5F000F0F002B1FBF5F002EB7E
:103250000012B1FBF5F06FF01803584301EB80004A
:1032600006EB0010B0FBF5F000F00F0021681044F1
:10327000886070BDA0FB010192185B41FDF704F866
:103280000146B0FBF5F00201B1FBF5F06FF0180359
:10329000584301EB800006EBC000B0FBF5F000F0F6
:1032A000F80002EB4002B1FBF5F0584301EB80005F
:1032B00006EBC000B0FBF5F000F00700D6E7000019
:1032C000001001400014014081628285C285002106
:1032D0004164222180F84210016921B10168CA6865
:1032E00042F48072CA6001684A6942F001024A6190
:1032F0000068C16841F02001C160002070472DE9DD
:10330000F843984617460D460446089E24E0701C74
:1033100022D0FDF739FFA0EB0800B0421AD8CEB199
:103320002068C168490717D5802D15D0402D13D0CE
:103330000168C94309070FD401680025406800905F
:103340002046FFF7B3FE0820606484F84050012057
:10335000BDE8F8830320FBE72068006835EA000039
:1033600004D00020B842D2D00020F1E70120F9E7D4
:103370000148FEF777BC0000C00400200148FEF7BA
:1033800071BC0000080500200148FEF76BBC00007E
:1033900050050020FEE70907090E002804DB00F1B4
:1033A000E02080F80014704700F00F0000F1E020EA
:1033B00080F8141D704710B5FDF749FB4720FDF755
:1033C00021FBFDF76AFB0120FDF7F7FA4FF6FF71CD
:1033D00001EA00240020FDF7F0FA204484B2FDF752
:1033E00045FB204610BD000010B50446FDF72FFB3D
:1033F0004620FDF707FB00BFFDF74FFB0028FBD180
:103400002046FDF7FFFAFDF748FBBDE81040FDF749
:103410002DBB0000FDF7C6FEFFF782FCFFF7DCF9CD
:1034200051485049002401604FF41651C0E901147D
:103430000C25C460C0E904458461C461FEF752FDF7
:1034400008B172B6FEE74848484990304FF4E1367B
:103450000160C0E90164C460C0E904458461C461DD
:10346000FEF740FD08B172B6FEE7FFF737FA3E48B7
:103470003F4948300160C0E90164C460C0E90445C7
:103480008461C461FEF72EFD08B172B6FEE73648CE
:10349000012238499030FEF7F9FDFFF743FBFEF7B4
:1034A000BFFEFDF71BFBFDF72BFB3348334C0078C9
:1034B00020B1FEF7C7FEFDF767FEA060304D314E2C
:1034C00040F22B194FF47A7844F62067FDF784FC1C
:1034D000FEF746FEFDF758FEE168401AC8280AD3F9
:1034E000FDF752FEE060FFF766FF00EE100AB8EE4F
:1034F000400A84ED010A61680020A94202DA40F224
:10350000BB2009E0204A914202DA40F2F31003E0C6
:103510001E4A914200DA48463278002112B12278E0
:1035200002B149460844404501D340F2E730618882
:10353000884202D06080FEF779FEFDF725FE216902
:10354000401AB842C2D3FDF71FFE20616088642193
:10355000484340F2DE31B0FBF1F0C0B2FFF748F86B
:10356000B4E7000000100140C00400200048004003
:10357000004400403800002000000020100000201F
:103580000000A042060000200000F04200002A4394
:1035900010B500290AD00878002807D005487844DB
:1035A000FDF796F9002801D0002010BD02487844AC
:1035B00010BD0000960700008E0700004FF040701D
:1035C000E1EE100A7047000000000000000000005B
:1035D000000000000000000000F8000000000000F3
:1035E00000333000000000100C06100C0600000034
:1035F00000000000000040C07840C0784000043F58
:1036000004043F040400007088FC08300000001827
:1036100020FF211E0000F008F000E018000000214B
:103620001C031E211E0000F00888700000001E21EF
:1036300023241927211010160E000000000000009E
:10364000000000000000000000E01804020000007C
:1036500000071820400000020418E00000000040AD
:10366000201807000000404080F080404000020227
:10367000010F01020200000000F000000000010143
:10368000011F01010100000000000000000080B0E7
:1036900070000000000000000000000000000001B9
:1036A00001010101010100000000000000000030E4
:1036B000300000000000000000008060180400607E
:1036C00018060100000000E010080810E000000FDC
:1036D000102020100F00001010F800000000002043
:1036E000203F20200000007008080888700000308B
:1036F0002824222130000030088888483000001833
:10370000202020110E000000C02010F8000000074B
:103710000424243F240000F80888880808000019C1
:10372000212020110E0000E0108888180000000FF2
:10373000112020110E0000380808C83808000000C9
:10374000003F000000000070880808887000001C1E
:10375000222121221C0000E010080810E0000000D7
:10376000312222110F00000000C0C0000000000044
:103770000030300000000000008000000000000069
:103780008060000000000000804020100800000160
:103790000204081020004040404040404000040423
:1037A00004040404040000081020408000000020ED
:1037B000100804020100007048080808F00000002A
:1037C000003036010000C030C828E810E0000718BB
:1037D000272423140B000000C038E0000000203C28
:1037E00023020227382008F8888888700000203FCC
:1037F000202020110E00C0300808080838000718E3
:1038000020202010080008F808080810E000203FD9
:10381000202020100F0008F88888E8081000203FBA
:1038200020202320180008F88888E8081000203F8E
:10383000200003000000C030080808380000071806
:103840002020221E020008F808000008F808203F87
:10385000210101213F20000808F80808000000208D
:10386000203F2020000000000808F8080800C08061
:1038700080807F00000008F888C028180800203FDA
:1038800020012638200008F8080000000000203F32
:1038900020202020300008F8F800F8F80800203F29
:1038A000003F003F200008F830C00008F808203F23
:1038B000200007183F00E01008080810E0000F1073
:1038C000202020100F0008F808080808F000203F0A
:1038D000210101010000E01008080810E0000F18A5
:1038E000242438504F0008F8888888887000203FCA
:1038F0002000030C302000708808080838000038C9
:10390000202121221C00180808F8080818000000CF
:10391000203F2000000008F808000008F808001FF9
:10392000202020201F000878880000C838080000E8
:1039300007380E010000F80800F80008F800033C02
:103940000700073C030008186880806818082030CA
:103950002C03032C30200838C800C83808000000A9
:10396000203F2000000010080808C8380800203850
:10397000262120201800000000FE020202000000A4
:10398000007F40404000000C30C0000000000000FC
:1039900000010638C00000020202FE0000000040E4
:1039A00040407F000000000004020202040000000A
:1039B0000000000000000000000000000000808007
:1039C00080808080808000020204000000000000EF
:1039D00000000000000000008080808000000019CE
:1039E000242222223F2008F8008080000000003FAF
:1039F000112020110E000000008080800000000EC9
:103A0000112020201100000000808088F800000EA6
:103A1000112020103F200000808080800000001FC7
:103A2000222222221300008080F08888881800203B
:103A3000203F202000000000808080808000006BFC
:103A400094949493600008F8008080800000203FE8
:103A5000210000203F2000809898000000000020F6
:103A6000203F20200000000000809898000000C047
:103A70008080807F000008F8000080808000203F68
:103A800024022D302000000808F80000000000206B
:103A9000203F202000008080808080808000203FA8
:103AA00020003F20003F8080008080800000203F79
:103AB000210000203F200000808080800000001F47
:103AC000202020201F00808000808000000080FFD8
:103AD000A12020110E000000008080808000000ED8
:103AE000112020A0FF808080800080808000202026
:103AF0003F21200001000000808080808000003392
:103B0000242424241900008080E08080000000002C
:103B1000001F202000008080000000808000001F27
:103B2000202020103F2080808000008080800001C5
:103B30000E300806010080800080008080800F30F9
:103B40000C030C300F00008080008080800000207B
:103B5000312E0E31200080808000008080808081A6
:103B60008E70180601000080808080808000002117
:103B7000302C2221300000000000807C0202000076
:103B80000000003F404000000000FF000000000077
:103B90000000FF0000000002027C800000000040E6
:103BA000403F000000000006010102020404000082
:103BB0000000000000000000000000000000010202
:103BC00003040607080900000000010203040000C6
:103BD00041542B4D515454555345524346473D3063
:103BE0002C312C226D7974657374222C225A494A27
:103BF00078795968535236222C2276657273696F30
:103C00006E3D323031382D31302D333126726573AF
:103C10003D70726F64756374732532465A494A78F1
:103C200079596853523625324664657669636573FF
:103C30002532466D79746573742665743D3139306B
:103C400039313335393938266D6574686F643D6DA7
:103C50006435267369676E3D7634592532422532C4
:103C6000426F5054497A7A5243253242483855348B
:103C7000672532426E77253344253344222C302C7D
:103C8000302C22220D0A000041542B4D5154545324
:103C900055423D302C22247379732F5A494A787942
:103CA00059685352362F6D79746573742F7468692F
:103CB0006E672F70726F70657274792F706F737486
:103CC0002F7265706C79222C300D0A0041542B4DF7
:103CD0005154545055425241573D302C222473794F
:103CE000732F5A494A787959685352362F6D79742F
:103CF0006573742F7468696E672F70726F70657268
:103D000074792F706F7374222C25642C302C300D35
:103D10000A000000443E00080000002038000000B7
:103D2000C40100087C3E000838000020C00B0000E1
:103D3000E00100081001000043000000F8FFFFFF51
:103D400000404040404040404040414141414140AE
:103D50004040404040404040404040404040404063
:103D600040050202020202020202020202020202F2
:103D700002202020202020202020200202020202F7
:103D8000020290909090909010101010101010104F
:103D9000101010101010101010101010020202025B
:103DA000020288888888888808080808080808089F
:103DB000080808080808080808080808020202029B
:103DC00040000000000000000000000000000000B3
:103DD00000000000000000000000000000000000E3
:103DE00000000000000000000000000000000000D3
:103DF00000000000000000000000000000000000C3
:103E000000000000000000000000000000000000B2
:103E100000000000000000000000000000000000A2
:103E20000000000000000000000000000000000092
:103E30000000000000000000000000000000000082
:103E40000000000000000000000000000000000072
:103E50000000000000000000000000000000000062
:103E60000000000000000000000000000100000051
:0C3E700010000000000000000024F4001E
:040000050800018965
:00000001FF
